:1000000038C05CC069C55AC059C01CC557C056C06D
:1000100055C054C053C052C051C050C04FC0005E04
:10002000BCE2613FDD83C29C7E20A3FD1F41009D99
:1000300023BE46DB65F88C11AF32CA57E974000065
:10004000000037000000000038000000000036000B
:10005000020202020202020202020102040810204D
:100060002004100801020000040000000000610AE2
:100070000D0B11241FBECFE5D2E0DEBFCDBF10E0D7
:10008000A0E6B0E0E4EDFAE102C005900D92A238DE
:10009000B107D9F721E0A2E8B0E001C01D92A63374
:1000A000B207E1F710E0C8E3D0E003C02197FE01FA
:1000B000FFDCC733D107D1F7B4D500CDA1CF81E0A4
:1000C00087B9369A3699FECF84B195B10895AF922B
:1000D000BF92CF92DF92EF92FF920F931F93CF9335
:1000E000DF936C017B018B01040F151FEB015E0197
:1000F000AE18BF08C017D10759F06991D601ED912C
:10010000FC910190F081E02DC6010995892B79F7CA
:10011000C501DF91CF911F910F91FF90EF90DF907C
:10012000CF90BF90AF900895823089F018F481305D
:1001300051F00895833019F0843009F008958CB59A
:100140008F7D8CBD08958AB58F778ABD08958AB555
:100150008F7DFBCFCF93DF9390E0FC01E65AFF4FFA
:100160002491805B9F4FFC0184918823D1F090E023
:10017000880F991FFC01E25CFF4FA591B491FC012F
:10018000EC5BFF4FC591D49161110EC09FB7F894FD
:100190008C91E22FE0958E238C932881E223E883D3
:1001A0009FBFDF91CF9108958FB7F894EC91E22B28
:1001B000EC938FBFF6CF3FB7F8948091D500909124
:1001C000D600A091D700B091D80022B708B601FEA2
:1001D00005C02F3F19F00196A11DB11D3FBFBA2FD9
:1001E000A92F982F8827BC01CD01620F711D811D99
:1001F000911D43E0660F771F881F991F4A95D1F71D
:1002000008958F929F92AF92BF92CF92DF92EF921A
:10021000FF926B017C01CFDF4B015C01C114D10463
:10022000E104F104B1F0C7DF681979098A099B0973
:10023000683E73408105910588F321E0C21AD10818
:10024000E108F10888EE880E83E0981EA11CB11C1D
:10025000E5CFFF90EF90DF90CF90BF90AF909F9051
:100260008F9008952FB7F8946091D1007091D200CB
:100270008091D3009091D4002FBF0895DC0180E0DD
:10028000615090F09D919827E92FEF70F0E0E25EC9
:10029000FF4F2491E92FE295EF70F0E0E25DFF4F10
:1002A000E491822F8E27ECCF0895DC012C911196DA
:1002B000ED91FC91F8948181822B81839281322F80
:1002C00030959323928382E090E00197F1F781814A
:1002D0008323818380E190E00197F1F79081789406
:1002E000E6E6F0E03197F1F7922381E009F480E04F
:1002F0000895FC0190810180F281E02D292F209545
:1003000060FF14C0F8948281822382838181892BCB
:100310008183A0E1B0E01197F1F78281982B92835D
:1003200078948AE690E00197F1F70895F894828135
:10033000822382838181892B8183AEE7B0E011978C
:10034000F1F78281982B9283789486E090E0EBCF4E
:10035000DF92EF92FF920F931F93CF93DF93EC0105
:10036000D62EE42E08E010E0FF24F39461E08D2DFA
:100370008F2109F460E0CE01BCDFFF0C01501109B0
:10038000A9F7E11010C0F894E981FA819181888180
:10039000809589238183E981FA8192818881809582
:1003A000892382837894DF91CF911F910F91FF90E1
:1003B000EF90DF900895EF92FF920F931F93CF93EA
:1003C000DF938C017B0140E065E5C2DFE70188E057
:1003D000E80EF11C699140E0C801BADFCE15DF05D7
:1003E000C9F7DF91CF911F910F91FF90EF90089582
:1003F0002091DB003091DC002817390771F49091CF
:10040000D9008091DA00981741F0E091D900F0E02E
:10041000E057FF4F808190E008958FEF9FEF0895A0
:100420000895EF92FF920F931F93CF93DF93DC0118
:100430005C96ED90FC905D97E114F10479F481E015
:1004400090E013969C938E93129790E080E0DF915A
:10045000CF911F910F91FF90EF9008955196ED91DC
:10046000FC91529750968C915097982F90950FB77A
:100470005E962C915E97122F127021FD6095F89474
:100480002081112319F1282B2083E7012197F1F70F
:1004900028E0462F50E0308160FF1AC0382B3083AF
:1004A000E7012197F1F7BA0175956795215089F712
:1004B000112381F08081892380830FBF5C968D9109
:1004C0009C910197F1F781E090E0C1CF2923DCCF27
:1004D0003923E5CF9081892BEFCF2091DB0030913C
:1004E000DC002817390769F48091DA002091D900DF
:1004F00090E0805C9F4F821B910960E470E0B1DA6C
:10050000089590E080E008952091DB003091DC00B8
:1005100028173907B9F49091D9008091DA0098171B
:1005200089F0E091D900F0E0E057FF4F8081209101
:10053000D90030E02F5F3F4F2F7333272093D9002E
:1005400090E008958FEF9FEF089590E080E0089588
:10055000FC0190810180F281E02DF8948181292FA6
:1005600020958223818378943DE7315011F1808179
:100570008923D9F3F8948281822382838181892B14
:1005800081837894ACEBB3E01197F1F7F894818113
:1005900082238183A8E8B0E01197F1F78081982346
:1005A00081E009F080E07894E0E3F3E03197F1F73F
:1005B000089580E00895AF92BF92CF92DF92EF92BC
:1005C000FF920F931F93CF93DF938B01BC01809118
:1005D000280190912901EFDE40E06EEB8091280127
:1005E00090912901B5DEE801680189E0C80ED11CAF
:1005F000A0902801B090290188E0E82EF12C10E0AD
:1006000001E0C50152DE8111102B000F81E0E81AD4
:10061000F108B9F71993CC16DD0651F7809128013E
:100620009091290195DF91E0813009F090E0892FC8
:10063000DF91CF911F910F91FF90EF90DF90CF90BE
:10064000BF90AF9008950F931F93CF93DF93CDB7D3
:10065000DEB729970FB6F894DEBF0FBECDBF8C0171
:10066000809128019091290173DF811102C080E0FF
:100670001DC0BE016F5F7F4FC8019DDF8823B9F3A6
:1006800068E0CE010196FADD99858913F0CF8D815E
:100690008F33B9F020F48F3151F789E007C08F35DF
:1006A00021F08F3721F78CE001C08BE029960FB63F
:1006B000F894DEBF0FBECDBFDF91CF911F910F9198
:1006C00008958AE0F3CFBF92CF92DF92EF92FF922C
:1006D0000F931F93CF93DF93EC01B62EC72E8D851A
:1006E000811104C0CE0134DF81110EC01B861D862E
:1006F0001C8680E0DF91CF911F910F91FF90EF90CA
:10070000DF90CF90BF90089540E060EFCE0120DEF3
:1007100001E0E12CD12C11E0CE01C7DDF82ECE0195
:10072000C4DD91E0F91218C0813099F51134F0F26E
:10073000DB86D11002C081E08D878B818823B1F2E6
:100740002396EB2DFC2DCF01089629912193E817D4
:10075000F907D9F781E0CECFEE2DF0E0F8120FC007
:100760008B851817A0F4DE01AE0FBF1F13968C9176
:10077000802379F4F12C193008F41C87D12EEC0F6A
:10078000FD1F8381902F9095892383830AC0811355
:10079000F1CFFE01EE0DF11D8381802B8383FF24B9
:1007A000F3946F2DCE01A5DD1F5F000F11F4E394CC
:1007B00001E087E08E1508F0AFCFB8CFCF93DF937D
:1007C000CDB7DEB761970FB6F894DEBF0FBECDBFD1
:1007D000E0912801F091290113861586148612866E
:1007E0001186108617821682158214821382BE012A
:1007F000665F7F4F809128019091290164DF81110C
:100800000DC060E070E08EEF92EC61960FB6F89448
:10081000DEBF0FBECDBFDF91CF91089567E0CE015F
:100820000A962CDD99898913ECCF8091280190914B
:1008300029018EDE882329F3BE016F5F7F4FCE0131
:100840000A96B9DE8823E9F268E0CE01019616DD4A
:1008500099858913D6CF2A81422F50E0542F4427FF
:10086000550F550F550F8981282F30E073E0220F67
:10087000331F7A95E1F7242B352B8A858031C9F413
:10088000688570E08F81AB01481B5109CA019695BC
:10089000982F882797958795E4D8CB014097B90181
:1008A00053E0660F771F5A95E1F760789C01260F99
:1008B000371F213854EE35070CF4A3CFB901330F9D
:1008C000880B990BAFD720E030E040E05CE35ED8C6
:1008D0009CCF8F929F92AF92BF92CF92DF92EF9276
:1008E000FF92809128019091290132DE40E06CEC6A
:1008F00080912801909129012BDD4091220164E42F
:10090000809128019091290123DD80912401882381
:1009100081F1E0912301E9508EEEC82E82E0D82EBD
:10092000E33038F4F0E0EE0FFF1FE558FF4FC080D2
:10093000D18080912501882329F1809122018111A4
:1009400021C090DC4B015C010D2C000CEE08FF086F
:100950008091280190912901A8DC813051F082DC3E
:100960006C197D098E099F09681579058A059B0513
:1009700078F3FF90EF90DF90CF90BF90AF909F9073
:100980008F900895B601DD0C880B990BFF90EF90C6
:10099000DF90CF90BF90AF909F908F9032CC9F927E
:1009A000AF92BF92CF92DF92EF92FF920F931F937D
:1009B000CF93DF935C017B018B01D0E0C0E0F801B5
:1009C00091908F016501CC0EDD1EC60142D69816AE
:1009D00019F0692DC60145D62196C430D10579F7A5
:1009E000C701DF91CF911F910F91FF90EF90DF90A2
:1009F000CF90BF90AF909F900895CF92DF92EF92EB
:100A0000FF920F931F93CF93DF93EB017B0124E0C1
:100A1000E20EF11C8B016C01C61AD70AC601800FC9
:100A2000911F17D6F80181938F01EE15FF05B1F7DD
:100A3000CE01DF91CF911F910F91FF90EF90DF904A
:100A4000CF9008951F920F920FB60F9211242F93FB
:100A50003F938F939F93AF93BF938091D1009091D9
:100A6000D200A091D300B091D4003091D00026E004
:100A7000230F2D3758F50296A11DB11D2093D000EC
:100A80008093D1009093D200A093D300B093D40070
:100A90008091D5009091D600A091D700B091D80058
:100AA0000196A11DB11D8093D5009093D600A0930F
:100AB000D700B093D800BF91AF919F918F913F9194
:100AC0002F910F900FBE0F901F90189529E8230FBC
:100AD0000396A11DB11DD2CF1F920F920FB60F9298
:100AE00011242F933F934F935F936F937F938F9333
:100AF0009F93AF93BF93EF93FF93E091DB00F0914F
:100B0000DC00309749F0A685B7858585968D91FFE5
:100B100014C09C918923A1F4FF91EF91BF91AF91F3
:100B20009F918F917F916F915F914F913F912F9105
:100B30000F900FBE0F901F9018959C91892361F71D
:100B4000A389B4899C918589809589238C93868912
:100B500097890197F1F7608D718DA685B7855585C9
:100B600038E020E0CB010197F1F7822F90E09595D6
:100B70008795282F4C91452309F02068315091F733
:100B8000868D81FD20958091DA0090E001968F732B
:100B900099273091D900381799F0A091DA00B0E088
:100BA000A057BF4F2C938093DA00828D938D0197CD
:100BB000F1F7A389B4898C919589892B8C93ACCF5B
:100BC000868D8160868FF1CF1F93CF93DF93282F7F
:100BD00030E0F901EC59FF4F8491F901E65AFF4FDB
:100BE000D491F901E05BFF4FC491CC23A1F0162F03
:100BF00081119ADAEC2FF0E0EE0FFF1FEC5BFF4F54
:100C0000A591B4918FB7F894EC91111108C0D095CB
:100C1000DE23DC938FBFDF91CF911F910895DE2BF0
:100C2000F8CFCF93DF93CDB7DEB72C970FB6F894FC
:100C3000DEBF0FBECDBF78948AB582608ABD8AB50B
:100C400081608ABD83B7826083BF83B7816083BFC1
:100C500089B7826089BF80B7826080BF80B78160BA
:100C600080BF329A319A3098379A8CB580648CBDA7
:100C700010921E0110921D0110921C0110921B0176
:100C800010921A01109219018DEC90E090932001BE
:100C900080931F0130910F01353020F545E550E07C
:100CA00050931A01409319014BEC50E050931C01F2
:100CB00040931B0140E950E050931E0140931D01F9
:100CC0002BB720622BBF45E350E0509317014093B0
:100CD000160121E001C0220F3A95EAF7209318018E
:100CE0000197F1F780911D0190911E01892B49F127
:100CF000E091DB00F091DC0021E0E330F20709F144
:100D0000309739F0A389B4899C918589809589238E
:100D10008C93809121018E7F809321011092DA00C3
:100D20001092D90083E091E09093DC008093DB0087
:100D3000E0911601F0911701808190911801892BA3
:100D40008083E0912801F09129011386158614868D
:100D500012861186108617821682158214821382DB
:100D6000109226011092270101E0BE016F5F7F4FB4
:100D70008091280190912901A6DC882309F460C0A4
:100D800067E0CE0101967ADA98858913EECF8091DB
:100D90002201811123C08091280190912901D8DB83
:100DA000BE016F5F7F4F809128019091290103DB85
:100DB00040E064EB8091280190912901C9DA80918B
:100DC00028019091290171DA182F809128019091C2
:100DD0002901BEDB111102C00093220110912301F1
:100DE0008981803109F442C3CE0101962CDC811740
:100DF000C0F48091230180932301809126018F5FAD
:100E0000809326018981883231F0A0F4803119F075
:100E1000823209F0AACF809127018F5F809327014A
:100E2000A4CF8981803111F48CE0E5CFCE01019609
:100E30000ADCE1CF8B3379F3823409F096CFEBCF24
:100E400060E080E087D9E090E500F090E60063EF95
:100E500070E0C701D2DDC70104969093E60080934D
:100E6000E5006FEE70E0C9DD68EB7BE080E090E0CC
:100E7000C8D988E0E7EFF0E0A7EEB0E001900D926E
:100E80008A95E1F748E050E067EE70E083E091E09A
:100E90001ED940E0242E40E0342E54E0C52ED12C43
:100EA000EE24EA94FE2C11E083E091E016DB1816A4
:100EB00019060CF0D2C083E091E026DB5C01909330
:100EC00002018093010164E670E080E090E099D92E
:100ED000AA94AB2809F04BC0FCDCF1D85C019093DC
:100EE00000018093FF006ADC6093FB007093FC00BC
:100EF0008093FD009093FE00B501BB0C880B990B0D
:100F000091D42B013C018091F3009091F400A091C9
:100F1000F500B091F60089879A87AB87BC879C0162
:100F2000AD01C301B20110D418160CF4CFC080E09B
:100F300090E0A8ECB2E48093F7009093F800A093BF
:100F4000F900B093FA0088E0E7EFF0E0A7EEB0E038
:100F500001900D928A95E1F748E050E067EE70E06D
:100F600083E091E0B4D8F0920201E0920101809117
:100F70000101909102010997A9F51092E6001092E3
:100F8000E5009DD8BC01990F880B990B4BD4609359
:100F9000F3007093F4008093F5009093F600609353
:100FA000F7007093F8008093F9009093FA0088E0BE
:100FB000E7EFF0E0A7EEB0E001900D928A95E1F73F
:100FC00048E050E067EE70E083E091E080D863EFA6
:100FD00070E08091E5009091E600E1DCF092020182
:100FE000E09201018091010190910201892BA9F504
:100FF000D092E600C092E50062D8BC01990F880B40
:10100000990B10D46093EF007093F0008093F1007F
:101010009093F2006093F7007093F8008093F900CA
:101020009093FA0088E0E7EFF0E0A7EEB0E00190DF
:101030000D928A95E1F748E050E067EE70E083E0BA
:1010400091E045D86FEE70E08091E5009091E60068
:10105000A6DCF0920201E0920101E4E6F0E0849166
:10106000EAE5F0E0B490E0E5F0E0A490A11067C0FC
:101070001092E2008091E100882309F4B0C0F2D818
:101080008090610090906200A0906300B090640036
:10109000681979098A099B096531710581059105EE
:1010A00008F49DC08091E000811199C0DBD8609365
:1010B000650070936600809367009093680080914C
:1010C000DE00811190C11093DD0089C08090EF0097
:1010D0009090F000A090F100B090F200A501940172
:1010E000C301B2014FD487FD09C01092F7001092DE
:1010F000F8001092F9001092FA0025CFA501940192
:10110000C301B201BCD22B013C01A5019401698548
:101110007A858B859C85B3D29B01AC01C301B2015A
:1011200017D320E030E048EC52E430D46093F7006D
:101130007093F8008093F9009093FA0004CF811126
:10114000F3D7EA2DF0E0EE0FFF1FE65BFF4FA5910E
:10115000B4918C91B82281E009F480E08093E200A0
:10116000BB2009F487CF8091E100811183C17AD837
:101170008090650090906600A0906700B090680035
:10118000681979098A099B096531710581059105FD
:1011900008F470C167D86093610070936200809317
:1011A0006300909364001092E0001093600010922E
:1011B000DF0058D8681979098A099B096A3F7105C7
:1011C0008105910540F48091DE00811104C0809179
:1011D000DD00811105C11092DE001092DD00B12CFE
:1011E000A12C9090E200911049C13CD8409065003C
:1011F00050906600609067007090680064197509EF
:10120000860997096A3F710581059105B8F08091BB
:10121000DD00882399F08091DE0081110FC090904D
:101220006000992059F0912CF2E0AF16B10431F032
:101230001092DD00912CAA24A394B12C9092E1008D
:10124000B092E400A092E300AA94AB2809F047C052
:1012500040DB35D75C01909300018093FF00AEDA4C
:101260006093FB007093FC008093FD009093FE0060
:10127000B501BB0C880B990BD5D22B013C01809199
:10128000F3009091F400A091F500B091F6008987E9
:101290009A87AB87BC879C01AD01C301B20154D2D0
:1012A00018160CF4AAC080E090E0A8ECB2E4809399
:1012B000F7009093F800A093F900B093FA0088E04B
:1012C000E7EFF0E0A7EEB0E001900D928A95E1F72C
:1012D00048E050E067EE70E083E091E0F8D680915E
:1012E000E3009091E4000297A9F5D092E600C09245
:1012F000E500E5D6BC01990F880B990B93D260935A
:10130000EF007093F0008093F1009093F2006093EF
:10131000F7007093F8008093F9009093FA0088E04A
:10132000E7EFF0E0A7EEB0E001900D928A95E1F7CB
:1013300048E050E067EE70E083E091E0C8D66FEEE1
:1013400070E08091E5009091E60029DB10920201A7
:10135000109201018091E3009091E400039789F5D8
:101360001092E6001092E500AAD6BC01990F880BF6
:10137000990B58D26093F3007093F4008093F500BA
:101380009093F6006093F7007093F8008093F90053
:101390009093FA0088E0E7EFF0E0A7EEB0E001906C
:1013A0000D928A95E1F748E050E067EE70E083E047
:1013B00091E08DD663EF70E08091E5009091E600BA
:1013C000EEDA1092E4001092E30064E670E080E050
:1013D00090E017D72114310409F466CD11D664CDFD
:1013E0001093DE00FACE1092DE001092DD00109213
:1013F000600022E0A22EB12CF4CE8090EF009090FD
:10140000F000A090F100B090F200A5019401C3019A
:10141000B201B8D287FD09C01092F7001092F8000F
:101420001092F9001092FA004ACFA5019401C3016D
:10143000B20125D12B013C01A501940169857A8572
:101440008B859C851CD19B01AC01C301B20180D16D
:1014500020E030E048EC52E499D26093F7007093BA
:10146000F8008093F9009093FA0029CF1D3008F01E
:10147000C0CCDACC9090E200B12CA12CF3D64090F5
:101480006100509062006090630070906400641985
:10149000750986099709683E73408105910508F42E
:1014A000CDCE8091DF008111C9CE1093E000109263
:1014B000DE001092DD001093DF0083E0A82EB12C37
:1014C000BDCE60E081E046D6EBE5F0E0E491E0934C
:1014D0008200E1E5F0E0E491F0E0EE0FFF1FE65B53
:1014E000FF4F859194919093840080938300109294
:1014F0008D0010928F0010928E0010928C0010922E
:101500008B0010928A00109289001092880010922D
:101510008700109286001092850082E890E09093F8
:101520002901809328011092260110922701109220
:10153000220189E08093230161E06093240160939C
:10154000250110923501109234011092060110927B
:10155000050188EE93E0A0E0B0E08093070190934E
:101560000801A0930901B0930A018DE690E09093E1
:1015700004018093030110921A0110921901109234
:101580001C0110921B0110921E0110921D0110925D
:10159000200110921F01809121018E7F8D7F809309
:1015A000210186958170682783E00EDB61E083E08E
:1015B000D1D5EDE5F0E0E491E0931301E3E5F0E04F
:1015C000E491F0E0EE0FFF1FEC5BFF4F85919491EB
:1015D000909315018093140160E084E0BBD5809165
:1015E000210181FD03C061E084E0EEDA84E08093B4
:1015F0000F01EEE5F0E0E491E0931001E4E5F0E0A6
:10160000E491F0E0EE0FFF1FE65BFF4F85919491B0
:10161000909312018093110108958DE690E09093CC
:101620000401809303018091DB009091DC008350E2
:10163000914071F4E0911601F09117019081809131
:1016400018018095892380831092DC001092DB00C2
:101650000895E199FECF9FBB8EBBE09A99278DB389
:101660000895262FE199FECF1CBA9FBB8EBB2DBBE0
:101670000FB6F894E29AE19A0FBE01960895505879
:10168000BB27AA270ED044C135D130F03AD120F083
:1016900031F49F3F11F41EF42AC10EF4E095E7FBEC
:1016A00020C1E92F46D180F3BA1762077307840778
:1016B000950718F071F49EF55EC10EF4E0950B2EBF
:1016C000BA2FA02D0B01B90190010C01CA01A00194
:1016D0001124FF27591B99F0593F50F4503E68F1EF
:1016E0001A16F040A22F232F342F4427585FF3CF30
:1016F000469537952795A795F0405395C9F77EF401
:101700001F16BA0B620B730B840BBAF09150A1F049
:10171000FF0FBB1F661F771F881FC2F70EC0BA0FCF
:10172000621F731F841F48F4879577956795B79557
:10173000F7959E3F08F0B3CF9395880F08F099274F
:10174000EE0F979587950895A8D008F481E0089545
:101750000CD0DEC0D6D040F0CDD030F021F45F3FC9
:1017600019F0BFC0511108C1C2C0E3D098F399234A
:10177000C9F35523B1F3951B550BBB27AA27621755
:101780007307840738F09F5F5F4F220F331F441F9A
:10179000AA1FA9F333D00E2E3AF0E0E830D09150D2
:1017A0005040E695001CCAF729D0FE2F27D0660FBF
:1017B000771F881FBB1F261737074807AB07B0E8FE
:1017C00009F0BB0B802DBF01FF2793585F4F2AF014
:1017D0009E3F510568F085C0CFC05F3FECF3983E57
:1017E000DCF3869577956795B795F7959F5FC9F771
:1017F000880F911D9695879597F90895E1E0660FFA
:10180000771F881FBB1F621773078407BA0720F072
:10181000621B730B840BBA0BEE1F88F7E0950895DB
:10182000E89409C097FB3EF490958095709561957A
:101830007F4F8F4F9F4F9923A9F0F92F96E9BB2730
:101840009395F695879577956795B795F111F8CFAC
:10185000FAF4BB0F11F460FF1BC06F5F7F4F8F4F17
:101860009F4F16C0882311F096E911C0772321F00D
:101870009EE8872F762F05C0662371F096E8862FA5
:1018800070E060E02AF09A95660F771F881FDAF7FC
:10189000880F9695879597F90895990F0008550F29
:1018A000AA0BE0E8FEEF16161706E807F907C0F0E6
:1018B00012161306E407F50798F0621B730B840BEE
:1018C000950B39F40A2661F0232B242B252B21F4C8
:1018D00008950A2609F4A140A6958FEF811D811D68
:1018E000089597F99F6780E870E060E008959FEFA2
:1018F00080EC089500240A941616170618060906A7
:10190000089500240A941216130614060506089575
:10191000092E0394000C11F4882352F0BB0F40F4FD
:10192000BF2B11F460FF04C06F5F7F4F8F4F9F4F3D
:10193000089557FD9058440F551F59F05F3F71F0BF
:101940004795880F97FB991F61F09F3F79F0879526
:101950000895121613061406551FF2CF4695F1DFAF
:1019600008C0161617061806991FF1CF869571053F
:10197000610508940895E894BB2766277727CB0173
:1019800097F908958ADF08F48FEF08950AD0C0CF41
:10199000B1DF28F0B6DF18F0952309F0A2CFA7CF6A
:1019A000EBCFC7DFA8F39923D9F35523C9F3950FDC
:1019B00050E0551FAA27EE27FF27BB2700240894D5
:1019C000679520F4E20FF31FB41F0A1E220F331F86
:1019D000441FAA1F6695A9F7779530F4F30FB41F3B
:1019E0000A1E121E08F46395330F441FAA1F221FFC
:1019F000769599F7879520F4B40F0A1E121E631F7F
:101A0000440FAA1F221F331F8695A9F7862F712D19
:101A1000602D11249F5750408AF0E1F088234AF04E
:101A2000EE0FFF1FBB1F661F771F881F915050408E
:101A3000A9F79E3F510570F054CF9ECF5F3FECF366
:101A4000983EDCF3869577956795B795F795E7957A
:101A50009F5FC1F7FE2B880F911D9695879597F98B
:101A6000089597FB072E16F4009406D077FD08D052
:101A70000BD007FC05D03EF4909581959F4F0895BB
:101A8000709561957F4F0895AA1BBB1B51E107C05C
:101A9000AA1FBB1FA617B70710F0A61BB70B881FFE
:101AA000991F5A95A9F780959095BC01CD0108958D
:101AB000EE0FFF1F0590F491E02D099410E0C8E3AC
:101AC000D0E003C0FE01F4DF2196C933D107D1F77E
:041AD000F894FFCFB8
:101AD40001FFFFFFFFFFFFFFFF000000001102678F
:101AE40000A50210026D028402F8015E00BC0077BA
:021AF4000100EF
:00000001FF
